{
  "contractName": "Payment",
  "abi": [
    {
      "inputs": [],
      "name": "AccountTotal",
      "outputs": [
        {
          "internalType": "uint256",
          "name": "",
          "type": "uint256"
        }
      ],
      "stateMutability": "view",
      "type": "function",
      "constant": true
    },
    {
      "inputs": [
        {
          "internalType": "uint256",
          "name": "",
          "type": "uint256"
        }
      ],
      "name": "Users",
      "outputs": [
        {
          "internalType": "uint256",
          "name": "UserId",
          "type": "uint256"
        },
        {
          "internalType": "string",
          "name": "UserName",
          "type": "string"
        },
        {
          "internalType": "bool",
          "name": "exists",
          "type": "bool"
        }
      ],
      "stateMutability": "view",
      "type": "function",
      "constant": true
    },
    {
      "inputs": [
        {
          "internalType": "uint256",
          "name": "",
          "type": "uint256"
        }
      ],
      "name": "accounts",
      "outputs": [
        {
          "internalType": "uint256",
          "name": "userid1",
          "type": "uint256"
        },
        {
          "internalType": "uint256",
          "name": "userid2",
          "type": "uint256"
        }
      ],
      "stateMutability": "view",
      "type": "function",
      "constant": true
    },
    {
      "inputs": [
        {
          "internalType": "uint256",
          "name": "",
          "type": "uint256"
        },
        {
          "internalType": "uint256",
          "name": "",
          "type": "uint256"
        }
      ],
      "name": "jointAccounts",
      "outputs": [
        {
          "internalType": "uint256",
          "name": "UserId1",
          "type": "uint256"
        },
        {
          "internalType": "uint256",
          "name": "UserId2",
          "type": "uint256"
        },
        {
          "internalType": "uint256",
          "name": "balance",
          "type": "uint256"
        },
        {
          "internalType": "bool",
          "name": "exists",
          "type": "bool"
        }
      ],
      "stateMutability": "view",
      "type": "function",
      "constant": true
    },
    {
      "inputs": [],
      "name": "numUsers",
      "outputs": [
        {
          "internalType": "uint256",
          "name": "",
          "type": "uint256"
        }
      ],
      "stateMutability": "view",
      "type": "function",
      "constant": true
    },
    {
      "inputs": [
        {
          "internalType": "uint256",
          "name": "",
          "type": "uint256"
        }
      ],
      "name": "transactions",
      "outputs": [
        {
          "internalType": "uint256",
          "name": "",
          "type": "uint256"
        }
      ],
      "stateMutability": "view",
      "type": "function",
      "constant": true
    },
    {
      "inputs": [],
      "name": "txcount",
      "outputs": [
        {
          "internalType": "uint256",
          "name": "",
          "type": "uint256"
        }
      ],
      "stateMutability": "view",
      "type": "function",
      "constant": true
    },
    {
      "inputs": [
        {
          "internalType": "uint256",
          "name": "UserId",
          "type": "uint256"
        },
        {
          "internalType": "string",
          "name": "UserName",
          "type": "string"
        }
      ],
      "name": "registerUser",
      "outputs": [
        {
          "internalType": "string",
          "name": "",
          "type": "string"
        }
      ],
      "stateMutability": "nonpayable",
      "type": "function"
    },
    {
      "inputs": [],
      "name": "getAllAccounts",
      "outputs": [
        {
          "components": [
            {
              "internalType": "uint256",
              "name": "UserId1",
              "type": "uint256"
            },
            {
              "internalType": "uint256",
              "name": "UserId2",
              "type": "uint256"
            },
            {
              "internalType": "uint256",
              "name": "balance",
              "type": "uint256"
            },
            {
              "internalType": "bool",
              "name": "exists",
              "type": "bool"
            }
          ],
          "internalType": "struct Payment.account[]",
          "name": "",
          "type": "tuple[]"
        }
      ],
      "stateMutability": "view",
      "type": "function",
      "constant": true
    },
    {
      "inputs": [
        {
          "internalType": "uint256",
          "name": "userId1",
          "type": "uint256"
        },
        {
          "internalType": "uint256",
          "name": "userId2",
          "type": "uint256"
        },
        {
          "internalType": "uint256",
          "name": "balance",
          "type": "uint256"
        }
      ],
      "name": "createJointAccount",
      "outputs": [
        {
          "internalType": "string",
          "name": "",
          "type": "string"
        }
      ],
      "stateMutability": "nonpayable",
      "type": "function"
    },
    {
      "inputs": [
        {
          "internalType": "uint256",
          "name": "amount",
          "type": "uint256"
        },
        {
          "internalType": "uint256[]",
          "name": "path",
          "type": "uint256[]"
        }
      ],
      "name": "sendAmount",
      "outputs": [
        {
          "internalType": "uint256",
          "name": "",
          "type": "uint256"
        }
      ],
      "stateMutability": "nonpayable",
      "type": "function"
    },
    {
      "inputs": [],
      "name": "TXstatus",
      "outputs": [
        {
          "internalType": "uint256[]",
          "name": "",
          "type": "uint256[]"
        }
      ],
      "stateMutability": "view",
      "type": "function",
      "constant": true
    },
    {
      "inputs": [
        {
          "internalType": "uint256",
          "name": "userId1",
          "type": "uint256"
        },
        {
          "internalType": "uint256",
          "name": "userId2",
          "type": "uint256"
        }
      ],
      "name": "closeAccount",
      "outputs": [
        {
          "internalType": "string",
          "name": "",
          "type": "string"
        }
      ],
      "stateMutability": "nonpayable",
      "type": "function"
    }
  ],
  "bytecode": "0x608060405260008055600060015560006103ea5534801561001f57600080fd5b50611b638061002f6000396000f3fe608060405234801561001057600080fd5b50600436106100cf5760003560e01c80633f65fff81161008c5780639ace38c2116100665780639ace38c214610241578063bd45d6eb14610271578063f2a40db8146102a1578063f8ca3db8146102d2576100cf565b80633f65fff8146101c35780635c42ed2c146101f3578063995fe34314610223576100cf565b806304297281146100d457806308e93d0a146100f257806319a50f49146101105780631c57333e1461012e5780631e98fd1c1461015e578063213baccf14610190575b600080fd5b6100dc6102f0565b6040516100e99190610f17565b60405180910390f35b6100fa6102f7565b6040516101079190611060565b60405180910390f35b6101186104e9565b6040516101259190610f17565b60405180910390f35b61014860048036038101906101439190611208565b6104ef565b60405161015591906112e3565b60405180910390f35b61017860048036038101906101739190611305565b610623565b60405161018793929190611341565b60405180910390f35b6101aa60048036038101906101a5919061137f565b6106e3565b6040516101ba94939291906113bf565b60405180910390f35b6101dd60048036038101906101d891906114cc565b61072e565b6040516101ea9190610f17565b60405180910390f35b61020d60048036038101906102089190611528565b610990565b60405161021a91906112e3565b60405180910390f35b61022b610c10565b604051610238919061162a565b60405180910390f35b61025b60048036038101906102569190611305565b610cbf565b6040516102689190610f17565b60405180910390f35b61028b6004803603810190610286919061137f565b610cdb565b60405161029891906112e3565b60405180910390f35b6102bb60048036038101906102b69190611305565b610ea9565b6040516102c992919061164c565b60405180910390f35b6102da610ece565b6040516102e79190610f17565b60405180910390f35b6103ea5481565b60606000600154600261030a91906116a4565b67ffffffffffffffff811115610323576103226110dd565b5b60405190808252806020026020018201604052801561035c57816020015b610349610ed4565b8152602001906001900390816103415790505b5090506000805b6001548110156104e05760006103ec600083815260200190815260200160002060000154905060006103ec60008481526020019081526020016000206001015490506103ed600083815260200190815260200160002060008281526020019081526020016000206040518060800160405290816000820154815260200160018201548152602001600282015481526020016003820160009054906101000a900460ff16151515158152505085858061041a906116e6565b96508151811061042d5761042c61172e565b5b60200260200101819052506103ed600082815260200190815260200160002060008381526020019081526020016000206040518060800160405290816000820154815260200160018201548152602001600282015481526020016003820160009054906101000a900460ff1615151515815250508585806104ad906116e6565b9650815181106104c0576104bf61172e565b5b6020026020010181905250505080806104d8906116e6565b915050610363565b50819250505090565b60005481565b60606103eb600084815260200190815260200160002060020160009054906101000a900460ff1615610558576040518060400160405280601381526020017f5573657220616c72656164792065786973747300000000000000000000000000815250905061061d565b6040518060600160405280848152602001838152602001600115158152506103eb60008581526020019081526020016000206000820151816000015560208201518160010190816105a99190611969565b5060408201518160020160006101000a81548160ff0219169083151502179055509050506000808154809291906105df906116e6565b91905055506040518060400160405280600f81526020017f557365722052656769737465726564000000000000000000000000000000000081525090505b92915050565b6103eb60205280600052604060002060009150905080600001549080600101805461064d9061178c565b80601f01602080910402602001604051908101604052809291908181526020018280546106799061178c565b80156106c65780601f1061069b576101008083540402835291602001916106c6565b820191906000526020600020905b8154815290600101906020018083116106a957829003601f168201915b5050505050908060020160009054906101000a900460ff16905083565b6103ed602052816000526040600020602052806000526040600020600091509150508060000154908060010154908060020154908060030160009054906101000a900460ff16905084565b600080600090505b600183516107449190611a3b565b8110156108195760008382815181106107605761075f61172e565b5b6020026020010151905060008460018461077a9190611a6f565b8151811061078b5761078a61172e565b5b60200260200101519050856103ed6000848152602001908152602001600020600083815260200190815260200160002060020154101561080457600060026103ea60008154809291906107dd906116e6565b919050556103e881106107f3576107f261172e565b5b01819055506000935050505061098a565b50508080610811906116e6565b915050610736565b5060005b6001835161082b9190611a3b565b8110156109515760008382815181106108475761084661172e565b5b602002602001015190506000846001846108619190611a6f565b815181106108725761087161172e565b5b60200260200101519050856103ed60008481526020019081526020016000206000838152602001908152602001600020600201546108b09190611a3b565b6103ed6000848152602001908152602001600020600083815260200190815260200160002060020181905550856103ed60008381526020019081526020016000206000848152602001908152602001600020600201546109109190611a6f565b6103ed600083815260200190815260200160002060008481526020019081526020016000206002018190555050508080610949906116e6565b91505061081d565b50600160026103ea600081548092919061096a906116e6565b919050556103e881106109805761097f61172e565b5b0181905550600190505b92915050565b60608284036109b9576040518060600160405280602a8152602001611b04602a91399050610c09565b6103eb600085815260200190815260200160002060020160009054906101000a900460ff161580610a0c57506103eb600084815260200190815260200160002060020160009054906101000a900460ff16155b15610a4e576040518060400160405280601d81526020017f557365727320646f6573206e6f7420616c7265616479206578697374730000008152509050610c09565b6040518060800160405280858152602001848152602001600284610a729190611ad2565b8152602001600115158152506103ed6000868152602001908152602001600020600085815260200190815260200160002060008201518160000155602082015181600101556040820151816002015560608201518160030160006101000a81548160ff0219169083151502179055509050506040518060800160405280848152602001858152602001600284610b089190611ad2565b8152602001600115158152506103ed6000858152602001908152602001600020600086815260200190815260200160002060008201518160000155602082015181600101556040820151816002015560608201518160030160006101000a81548160ff0219169083151502179055509050506040518060400160405280858152602001848152506103ec600060016000815480929190610ba7906116e6565b91905055815260200190815260200160002060008201518160000155602082015181600101559050506040518060400160405280600f81526020017f4163636f756e742043726561746564000000000000000000000000000000000081525090505b9392505050565b606060006103e867ffffffffffffffff811115610c3057610c2f6110dd565b5b604051908082528060200260200182016040528015610c5e5781602001602082028036833780820191505090505b50905060005b6103e8811015610cb7576002816103e88110610c8357610c8261172e565b5b0154828281518110610c9857610c9761172e565b5b6020026020010181815250508080610caf906116e6565b915050610c64565b508091505090565b6002816103e88110610cd057600080fd5b016000915090505481565b60606103ed6000848152602001908152602001600020600083815260200190815260200160002060030160009054906101000a900460ff16610d54576040518060400160405280601c81526020017f4a6f696e74206163636f756e7420646f6573206e6f74206578697374000000008152509050610ea3565b604051806080016040528084815260200183815260200160008152602001600015158152506103ed6000858152602001908152602001600020600084815260200190815260200160002060008201518160000155602082015181600101556040820151816002015560608201518160030160006101000a81548160ff021916908315150217905550905050604051806080016040528083815260200184815260200160008152602001600015158152506103ed6000848152602001908152602001600020600085815260200190815260200160002060008201518160000155602082015181600101556040820151816002015560608201518160030160006101000a81548160ff0219169083151502179055509050506040518060400160405280600f81526020017f4163636f756e742044656c65746564000000000000000000000000000000000081525090505b92915050565b6103ec6020528060005260406000206000915090508060000154908060010154905082565b60015481565b60405180608001604052806000815260200160008152602001600081526020016000151581525090565b6000819050919050565b610f1181610efe565b82525050565b6000602082019050610f2c6000830184610f08565b92915050565b600081519050919050565b600082825260208201905092915050565b6000819050602082019050919050565b610f6781610efe565b82525050565b60008115159050919050565b610f8281610f6d565b82525050565b608082016000820151610f9e6000850182610f5e565b506020820151610fb16020850182610f5e565b506040820151610fc46040850182610f5e565b506060820151610fd76060850182610f79565b50505050565b6000610fe98383610f88565b60808301905092915050565b6000602082019050919050565b600061100d82610f32565b6110178185610f3d565b935061102283610f4e565b8060005b8381101561105357815161103a8882610fdd565b975061104583610ff5565b925050600181019050611026565b5085935050505092915050565b6000602082019050818103600083015261107a8184611002565b905092915050565b6000604051905090565b600080fd5b600080fd5b61109f81610efe565b81146110aa57600080fd5b50565b6000813590506110bc81611096565b92915050565b600080fd5b600080fd5b6000601f19601f8301169050919050565b7f4e487b7100000000000000000000000000000000000000000000000000000000600052604160045260246000fd5b611115826110cc565b810181811067ffffffffffffffff82111715611134576111336110dd565b5b80604052505050565b6000611147611082565b9050611153828261110c565b919050565b600067ffffffffffffffff821115611173576111726110dd565b5b61117c826110cc565b9050602081019050919050565b82818337600083830152505050565b60006111ab6111a684611158565b61113d565b9050828152602081018484840111156111c7576111c66110c7565b5b6111d2848285611189565b509392505050565b600082601f8301126111ef576111ee6110c2565b5b81356111ff848260208601611198565b91505092915050565b6000806040838503121561121f5761121e61108c565b5b600061122d858286016110ad565b925050602083013567ffffffffffffffff81111561124e5761124d611091565b5b61125a858286016111da565b9150509250929050565b600081519050919050565b600082825260208201905092915050565b60005b8381101561129e578082015181840152602081019050611283565b60008484015250505050565b60006112b582611264565b6112bf818561126f565b93506112cf818560208601611280565b6112d8816110cc565b840191505092915050565b600060208201905081810360008301526112fd81846112aa565b905092915050565b60006020828403121561131b5761131a61108c565b5b6000611329848285016110ad565b91505092915050565b61133b81610f6d565b82525050565b60006060820190506113566000830186610f08565b818103602083015261136881856112aa565b90506113776040830184611332565b949350505050565b600080604083850312156113965761139561108c565b5b60006113a4858286016110ad565b92505060206113b5858286016110ad565b9150509250929050565b60006080820190506113d46000830187610f08565b6113e16020830186610f08565b6113ee6040830185610f08565b6113fb6060830184611332565b95945050505050565b600067ffffffffffffffff82111561141f5761141e6110dd565b5b602082029050602081019050919050565b600080fd5b600061144861144384611404565b61113d565b9050808382526020820190506020840283018581111561146b5761146a611430565b5b835b81811015611494578061148088826110ad565b84526020840193505060208101905061146d565b5050509392505050565b600082601f8301126114b3576114b26110c2565b5b81356114c3848260208601611435565b91505092915050565b600080604083850312156114e3576114e261108c565b5b60006114f1858286016110ad565b925050602083013567ffffffffffffffff81111561151257611511611091565b5b61151e8582860161149e565b9150509250929050565b6000806000606084860312156115415761154061108c565b5b600061154f868287016110ad565b9350506020611560868287016110ad565b9250506040611571868287016110ad565b9150509250925092565b600081519050919050565b600082825260208201905092915050565b6000819050602082019050919050565b60006115b38383610f5e565b60208301905092915050565b6000602082019050919050565b60006115d78261157b565b6115e18185611586565b93506115ec83611597565b8060005b8381101561161d57815161160488826115a7565b975061160f836115bf565b9250506001810190506115f0565b5085935050505092915050565b6000602082019050818103600083015261164481846115cc565b905092915050565b60006040820190506116616000830185610f08565b61166e6020830184610f08565b9392505050565b7f4e487b7100000000000000000000000000000000000000000000000000000000600052601160045260246000fd5b60006116af82610efe565b91506116ba83610efe565b92508282026116c881610efe565b915082820484148315176116df576116de611675565b5b5092915050565b60006116f182610efe565b91507fffffffffffffffffffffffffffffffffffffffffffffffffffffffffffffffff820361172357611722611675565b5b600182019050919050565b7f4e487b7100000000000000000000000000000000000000000000000000000000600052603260045260246000fd5b7f4e487b7100000000000000000000000000000000000000000000000000000000600052602260045260246000fd5b600060028204905060018216806117a457607f821691505b6020821081036117b7576117b661175d565b5b50919050565b60008190508160005260206000209050919050565b60006020601f8301049050919050565b600082821b905092915050565b60006008830261181f7fffffffffffffffffffffffffffffffffffffffffffffffffffffffffffffffff826117e2565b61182986836117e2565b95508019841693508086168417925050509392505050565b6000819050919050565b600061186661186161185c84610efe565b611841565b610efe565b9050919050565b6000819050919050565b6118808361184b565b61189461188c8261186d565b8484546117ef565b825550505050565b600090565b6118a961189c565b6118b4818484611877565b505050565b5b818110156118d8576118cd6000826118a1565b6001810190506118ba565b5050565b601f82111561191d576118ee816117bd565b6118f7846117d2565b81016020851015611906578190505b61191a611912856117d2565b8301826118b9565b50505b505050565b600082821c905092915050565b600061194060001984600802611922565b1980831691505092915050565b6000611959838361192f565b9150826002028217905092915050565b61197282611264565b67ffffffffffffffff81111561198b5761198a6110dd565b5b611995825461178c565b6119a08282856118dc565b600060209050601f8311600181146119d357600084156119c1578287015190505b6119cb858261194d565b865550611a33565b601f1984166119e1866117bd565b60005b82811015611a09578489015182556001820191506020850194506020810190506119e4565b86831015611a265784890151611a22601f89168261192f565b8355505b6001600288020188555050505b505050505050565b6000611a4682610efe565b9150611a5183610efe565b9250828203905081811115611a6957611a68611675565b5b92915050565b6000611a7a82610efe565b9150611a8583610efe565b9250828201905080821115611a9d57611a9c611675565b5b92915050565b7f4e487b7100000000000000000000000000000000000000000000000000000000600052601260045260246000fd5b6000611add82610efe565b9150611ae883610efe565b925082611af857611af7611aa3565b5b82820490509291505056fe43616e6e6f7420637265617465206a6f696e74206163636f756e7420776974682073616d652075736572a26469706673582212205747cff0c957dae1bfa3b7e721b421674f41c53669687065c79dfae22d2a401c64736f6c63430008130033",
  "immutableReferences": {},
  "source": "// SPDX-License-Identifier: MIT\npragma solidity >=0.4.22 <0.9.0;\n\n// Contract Payment\ncontract Payment {\n    // global variables to store users total and accounts total.\n    uint public numUsers = 0;\n    uint public AccountTotal = 0;\n\n    //struture to store user\n    struct User {\n        uint UserId;\n        string UserName;\n        bool exists;\n    }\n\n    //structure to store account exixtance\n    struct accounts_exist {\n        uint userid1;\n        uint userid2;\n    }\n\n    //structure to store  joint account\n    struct account {\n        uint UserId1;\n        uint UserId2;\n        uint balance;\n        bool exists;\n    }\n\n    uint[1000] public transactions;\n    uint public txcount = 0;\n\n    //Mappings\n    mapping(uint => User) public Users;\n    mapping(uint => accounts_exist) public accounts;\n    mapping(uint => mapping(uint => account)) public jointAccounts;\n\n    //function to register user\n    function registerUser(\n        uint UserId,\n        string memory UserName\n    ) public returns (string memory) {\n        //if user exist return else registers\n        if (Users[UserId].exists) {\n            return (\"User already exists\");\n        }\n\n        Users[UserId] = User(UserId, UserName, true);\n        numUsers++;\n        return (\"User Registered\");\n    }\n\n    //display all joint accounts details\n    function getAllAccounts() public view returns (account[] memory) {\n        account[] memory result = new account[](2 * AccountTotal);\n        uint j = 0;\n        // loop over total accounts and displays accounts\n        for (uint i = 0; i < AccountTotal; i++) {\n            uint userid1 = accounts[i].userid1;\n            uint userid2 = accounts[i].userid2;\n            result[j++] = jointAccounts[userid1][userid2];\n            result[j++] = jointAccounts[userid2][userid1];\n        }\n        return result;\n    }\n\n    // function to create joint accounts for two users\n    function createJointAccount(\n        uint userId1,\n        uint userId2,\n        uint256 balance\n    ) public returns (string memory) {\n        if (userId1 == userId2) {\n            return (\"Cannot create joint account with same user\");\n        }\n\n        if (!Users[userId1].exists || !Users[userId2].exists) {\n            return (\"Users does not already exists\");\n        }\n\n        jointAccounts[userId1][userId2] = account(\n            userId1,\n            userId2,\n            balance / 2,\n            true\n        );\n        jointAccounts[userId2][userId1] = account(\n            userId2,\n            userId1,\n            balance / 2,\n            true\n        );\n        accounts[AccountTotal++] = accounts_exist(userId1, userId2);\n        return (\"Account Created\");\n    }\n\n    //function used to store amount from one sender to other sender.\n    function sendAmount(uint amount, uint[] memory path) public returns (uint) {\n        //first checks if transaction is possible or not\n        for (uint i = 0; i < path.length - 1; i++) {\n            uint node1 = path[i];\n            uint node2 = path[i + 1];\n            if (jointAccounts[node1][node2].balance < amount) {\n                transactions[txcount++] = 0;\n                return 0;\n            }\n        }\n        // perform transaction\n        for (uint i = 0; i < path.length - 1; i++) {\n            uint node1 = path[i];\n            uint node2 = path[i + 1];\n            jointAccounts[node1][node2].balance =\n                jointAccounts[node1][node2].balance -\n                amount;\n            jointAccounts[node2][node1].balance =\n                jointAccounts[node2][node1].balance +\n                amount;\n        }\n        transactions[txcount++] = 1;\n        return 1;\n    }\n\n    // return the saved status of transactions (0-invalid,1-valid)\n    function TXstatus() public view returns (uint256[] memory) {\n        uint256[] memory Txlist = new uint256[](1000);\n        for (uint i = 0; i < transactions.length; i++) {\n            Txlist[i] = transactions[i];\n        }\n        return Txlist;\n    }\n\n    //close the joint account created earlier.\n    function closeAccount(\n        uint userId1,\n        uint userId2\n    ) public returns (string memory) {\n        if (!jointAccounts[userId1][userId2].exists) {\n            return (\"Joint account does not exist\");\n        }\n\n        jointAccounts[userId1][userId2] = account(userId1, userId2, 0, false);\n        jointAccounts[userId2][userId1] = account(userId2, userId1, 0, false);\n        return (\"Account Deleted\");\n    }\n}\n",
  "sourcePath": "/home/aniket-jadhav/Documents/blockchain/HW3/contracts/Payment.sol",
  "compiler": {
    "name": "solc",
    "version": "0.8.19+commit.7dd6d404.Emscripten.clang"
  },
  "schemaVersion": "3.4.13",
  "updatedAt": "2023-04-16T17:10:52.453Z",
  "networkType": "ethereum",
  "devdoc": {
    "kind": "dev",
    "methods": {},
    "version": 1
  },
  "userdoc": {
    "kind": "user",
    "methods": {},
    "version": 1
  }
}